:020000040800F2
:10000000C00C0020E5010008E9010008EB01000830
:10001000ED010008EF010008F101000800000000F8
:10002000000000000000000000000000F3010008D4
:10003000F501000800000000F7010008F9010008C0
:10004000FB010008FB010008FB010008FB010008A0
:10005000FB010008FB010008FB010008FB01000890
:10006000FB010008FB010008FB010008FB01000880
:10007000FB010008FB010008FB010008FB01000870
:10008000FB010008FB010008FB010008FB01000860
:10009000A9100008FB010008FB010008FB01000893
:1000A000FB010008FB010008FB010008FB01000840
:1000B000FB010008FB010008FB010008FB01000830
:1000C000FB010008FB010008FB010008FB01000820
:1000D000FB0100086D100008FB010008FB0100088F
:1000E000FB010008FB010008FB010008FB01000800
:1000F000FB010008FB010008FB010008FB010008F0
:10010000FB010008FB010008FB010008FB010008DF
:10011000FB010008FB010008FB010008FB010008CF
:10012000FB010008FB010008FB010008FB010008BF
:1001300000F002F800F042F80AA090E8000C8244B7
:100140008344AAF10107DA4501D100F037F8AFF294
:10015000090EBAE80F0013F0010F18BFFB1A43F0A5
:1001600001031847101E0000301E0000103A24BF83
:1001700078C878C1FAD8520724BF30C830C144BF0C
:1001800004680C607047000000230024002500264E
:10019000103A28BF78C1FBD8520728BF30C148BFEA
:1001A0000B607047642900F07980782900F0B280F4
:1001B000002070471FB51FBD10B510BD00F062F9DB
:1001C0001146FFF7F7FF01F0DDF800F080F903B406
:1001D000FFF7F2FF03BC01F01DF8000080F3088870
:1001E0007047000008480047FEE7FEE7FEE7FEE72D
:1001F000FEE7FEE7FEE7FEE7FEE7FEE70348044909
:10020000024A044B7047000031010008C00800207A
:10021000C00C0020C0080020704700000FB4044943
:1002200010B503AA029800F0FFF810BC5DF814FBAB
:10023000080000202DE9F0410E460446002020620F
:100240002046E168884730B3252805D0D4E901214C
:100250009047206A401CF2E7E16820460027884763
:10026000050018D0A5F14100192802D820354FF417
:1002700000673246294620462760FFF793FF40B1CA
:10028000012804D0F61D26F007060836D8E7361DEB
:10029000D6E72846DAE7206ABDE8F0812DE9F0418B
:1002A0000646002410687529314616A510D0AFF314
:1002B0000080002802DA404213A507E031688A076F
:1002C00001D512A502E0490704D511A5012401E0DA
:1002D000AFF3008000210A2206F1240709E0B0FBF9
:1002E000F2FCB0FBF2F302FB1C00303078541846ED
:1002F000491C0028F3D123462A463046BDE8F04188
:1003000000F038B8000000002D0000002B000000B5
:100310002000000070B504460D4621461068AFF37A
:1003200000802188090502D50F4A7A4402E00E4A6E
:100330007A440E32002104F1240305E000F00F0698
:100340000009965D5E54491C0028F7D120780023EF
:10035000000704D5702D02D009B1022311322046C6
:10036000BDE8704000F006B81C1C000070477047E4
:10037000704770472DE9F0470D469946924604466E
:1003800000F124080168880604D5E06921F0100115
:10039000216000E00120A84201DD471B00E00027AA
:1003A000A1697A1902EB0900081AA0612078C00639
:1003B00002D42046AFF30080002608E0D4E90121F2
:1003C0001AF806009047206A401C761C20624E45B1
:1003D000F4DB2078C0060AD52046AFF3008006E0A3
:1003E000D4E9012130209047206A401C2062381E49
:1003F000A7F10107F4DC07E0D4E9012118F80500B2
:100400009047206A401C2062281EA5F10105F3DCFC
:100410002046AFF300802078000602D50220BDE818
:10042000F0870120FBE70000074B70B50D467B44C9
:1004300000F011F80446284600F020F810B14FF003
:10044000FF3070BD204670BDA30E000001694A1C3C
:1004500002610878704700B58FB0CDE90131002105
:10046000059105497944CDE9031011466846FFF727
:10047000E1FE0FB000BD0000E5FFFFFF007B00F0D4
:1004800080007047754600F02BF8AE4605006946BF
:10049000534620F00700854618B020B5FFF7AEFEA2
:1004A000BDE820404FF000064FF000074FF0000875
:1004B0004FF0000B21F00701AC46ACE8C009ACE8F6
:1004C000C009ACE8C009ACE8C0098D46704710B55A
:1004D0000446AFF300802046BDE81040FFF777BE2A
:1004E00000487047600800202DE9F04704460D469B
:1004F00016461F46DDF820904FF0000814B10DB1EC
:1005000006B117B90120BDE8F087601EC4B2681EAD
:10051000C5B2701EC6B2781E87B26948806940F0C5
:100520000100674988610846806940F008008861D9
:100530000846C06940F00070C8616248006820F059
:10054000FF00604908600846006840F0B800086095
:100550005C480830006840F440705A49083108602F
:100560005948406840F48040574948600020574946
:1005700008600846006840F00100086008E008F1E3
:1005800001001FFA80F8B8F1640F01DD0220BAE71C
:100590004E48001D006800F001000028EFD04B48D5
:1005A00000684A4908600846006808600846006814
:1005B00008600846006840F01000086008460068BF
:1005C0000860084600680860002040491C31086047
:1005D0000846006840EA897008600846006840EAFA
:1005E000046008600846006840EA05500860084654
:1005F000006840EA06400860084600683843086022
:100600003248006820F001003049086009E008F134
:1006100001001FFA80F84FF6F070804501DD0320DD
:1006200071E72A48001D006800F001000028EED1A3
:100630002748006840F001002549086024481C3024
:10064000006820F0010022491C31086020480C306D
:10065000006840F001001E490C3108601C48001D74
:1006600000681B49091D08601948143000681849C2
:1006700014310860002016494031086000211448F8
:100680004430016012481C30006840F001001049FD
:100690001C3108600E48006800200D4908600B48B6
:1006A0001430006840F00200084914310860022349
:1006B00014220021012000F013FB002023E700009A
:1006C00000100240040C01400000014000640040A2
:1006D00000660040F0B5DDE90554324E06EB001629
:1006E000366806F004061670167836B92D4E06EBFD
:1006F00000163668760D0E6005E02A4E06EB0016F1
:100700003668F6080E60274E06EB0016366806F0CF
:1007100002061E70234E06EB0016766806F00F06E2
:100720002E70204E06EB0016B66826701D4E06EBA6
:100730000016B668360A66701A4E06EB0016B668E2
:10074000360CA670174E06EB0016B668360EE6702D
:10075000144E06EB0016F6682671124E06EB0016D4
:10076000F668360A66710F4E06EB0016F668360C10
:10077000A6710C4E06EB0016F668360EE67130B91F
:10078000094E366846F02006074F3E6009E0012812
:1007900007D1054E361D366846F02006024F3F1D34
:1007A0003E60F0BDB06500400C640040F8B5064600
:1007B0000D4600240123002211463046009500F02A
:1007C0003BF8074601E0601C84B2384600F0BAF8F6
:1007D000072803D040F6FF708442F4DB40F6FF7038
:1007E000844201DB0120F8BD0020FCE7F8B5054696
:1007F0000E4600240F490095096841F4C020334695
:100800000022012100F018F8074601E0601C84B2C4
:10081000384600F097F8072803D040F6FF7084426E
:10082000F4DB40F6FF70844201DB0120F8BD0020BC
:10083000FCE7000014000020F0B505460E46059CBC
:100840003E48006800F0806008B100210FE03B489E
:10085000006800F0006008B1012108E03748006836
:1008600000F0805008B1022101E0FF20F0BD002718
:10087000334800EB011007601EB9C5F30A056D058A
:1008800002E025F06045ED002D4800EB0110006806
:1008900028432B4F07EB01173860294800EB011064
:1008A000006840EA8607264800EB011007602448EC
:1008B00000EB0110006840EA4207214800EB0110FC
:1008C000076003F00F031E4800EB0110406820F0A2
:1008D0000F071B4800EB01104760194800EB01109F
:1008E00040681843164F07EB01177860E07900065F
:1008F000A77940EA0740677940EA0727207907434C
:100900000F4800EB0110C760E0780006A77840EAC6
:100910000740677840EA072027783843084F07EBFD
:100920000117B860064800EB0110006840F00107AD
:10093000034800EB01100760084697E70864004091
:10094000806500400146002021B1012913D0022911
:1009500033D121E01B4A126802F001021043194A08
:10096000126802F002021043164A126802F0806216
:1009700040EA126023E0134A126802F001021043B9
:10098000104A126802F0020210430E4A126802F086
:10099000006240EA526012E00A4A126802F0010264
:1009A0001043084A126802F002021043054A126816
:1009B00002F0805240EA926001E0052000BF00BFD3
:1009C000704700000864004070B502460B460020E6
:1009D0000024002100BF0AE0C5B2565C85EA060487
:1009E000044D35F8145085EA10204D1CA9B29942E7
:1009F000F2DB70BD4A1D00080246002003E0002320
:100A00001354431C98B28842F9DB704700B50A22A0
:100A100009490A4800F004FA074880780849087034
:100A2000054800880749086008460068FF2802D981
:100A300005480088086000BD3800002000700108EB
:100A400011000020140000200200002010B506480C
:100A50000088064908800648007848800A22054830
:100A600000F014FA10BD0000380000204C000020F7
:100A700011000020007001083EB50446002C53D040
:100A80002A48006820602948001D006860602748E7
:100A900008300068A06026A094E80E00FFF7BEFBB7
:100AA0002068000E8DF800002068000C8DF8010011
:100AB0002088000A8DF8020020788DF80300606815
:100AC000000E8DF804006068000C8DF80500A08809
:100AD000000A8DF8060020798DF80700A068000E46
:100AE0008DF80800A068000C8DF809002089000A24
:100AF0008DF80A00207A8DF80B000C216846FFF76C
:100B000063FF10490880002507E01DF805202946ED
:100B10000DA0FFF783FB681CC5B20C2DF5DB09485F
:100B200001880DA0FFF77AFB3EBD0000E8F7FF1F2C
:100B30004D554349443D25782C25782C25780D0AC0
:100B40000000000002000020646174615B25645DA8
:100B50003D25780D0A00000049645F4372633D251E
:100B6000780D0A000F48806940F008000D4988613F
:100B70000D48006820F47F000B49086008460068B3
:100B800040F40800086008480830006840F48050CD
:100B90000549083108600846006840F400500860C4
:100BA0007047000000100240040C014010B50446DC
:100BB00014B101201449087013480078B8B11348E3
:100BC000006818B11148001D006880B90A2000F0C3
:100BD00045FB00200C4908700C48006808B901204A
:100BE00010BD0A48001D006860B90220F8E70748F8
:100BF0000068012806D10548001D0068012801D1C0
:100C0000014908700020EBE71000002030812142EC
:100C10001648806940F0080014498861144800684B
:100C200020F07060124908600846006840F040708B
:100C300008600F480830006840F480400C490831D3
:100C400008600A48806940F0100008498861094836
:100C5000406820F47000074948600846406840F446
:100C6000401048600846C068C860704700100240E5
:100C7000040C01400010014000B500201549086136
:100C8000C8601420486100208861C8610846006877
:100C900040F001000860084640680F4908400D49CF
:100CA0004860084600680D4908400A49086008463F
:100CB000006820F4802008600846406820F4FE00A8
:100CC00048600020886000214FF0006000F058F874
:100CD00000BD0000001002400000FFF8FFFFF6FE1C
:100CE0002DE9F0410746884614461D46284600F087
:100CF00033F8C5F1040007FA00F60F20284100EA96
:100D00000800064306F00F06E21704EBD262521108
:100D1000920002F1E022D2F800212146E31704EB11
:100D2000D3635B11A4EB431C012303FA0CF31A43B6
:100D30002046E31704EBD3635B119B0003F1E02330
:100D4000C3F800210348005D40EA06100149085538
:100D5000BDE8F08100E400E00146072323EA010238
:100D60001202054B18684FF6FF031840034B184357
:100D70001043014B186070470CED00E00000FA05CD
:100D8000024A0A400243024B1A60704780FFFF1F6D
:100D900008ED00E070B50546002445F6FF7000F050
:100DA0005FF80446C4B90D48006940F002000B49E1
:100DB000086108464561006940F04000086145F659
:100DC000FF7000F04DF80446012C05D0034800697F
:100DD00020F0020001490861204670BD0020024059
:100DE0000948C16801F0010008B10120704701F015
:100DF000040008B10220F9E701F0100008B1032057
:100E0000F4E70020F2E700000020024003480069F8
:100E100040F0800001490861704700000020024056
:100E200030B503460C461546002207E0184600F090
:100E300008F824F812009B1C501C82B2AA42F5DB71
:100E400030BD01460888704702480349486003489E
:100E5000486070472301674500200240AB89EFCD11
:100E600070B5044600BFFFF7BBFF0546012D00D05B
:100E700006E0012000F010FA601E84B2002CF2D1CE
:100E800000BF04B9FF25284670BD00002DE9F05FC2
:100E900080468A461746B8F1006F02D33348804532
:100EA00001D3BDE8F09FFFF7CFFFA8F1006B4FEA39
:100EB000DB25CBF34909C9F58064A74200DC3C4639
:100EC0004EE04FF0006101EBC5204A142849FFF7BE
:100ED000A7FF00260BE009EB0600254931F81000BA
:100EE0004FF6FF71884200D003E0701C86B2A64224
:100EF000F1DB00BFA6421BDA4FF0006101EBC52019
:100F0000FFF748FF002608E03AF8160006EB090153
:100F1000174A22F81100701C86B2A642F4DB4FF08B
:100F2000006101EBC5204A14114900F043F804E0C8
:100F300022465146404600F03DF8A74200D110E05D
:100F40006D1C4FF000090AEB440A08EB4408381BFB
:100F500087B2B7F5806F02DD4FF4806400E03C4655
:100F6000AFE700BFFFF752FF00BF9AE70000040899
:100F70006000002070B505460E46FF20FFF770FFA9
:100F8000044694B90A48006940F001000849086124
:100F90002E80FF20FFF764FF0446012C05D0044893
:100FA000006920F0010002490861204670BD000080
:100FB000002002402DE9F04105460E461746002468
:100FC00007E036F814102846FFF7D4FFAD1C601C6C
:100FD00084B2BC42F5DBBDE8F081000030B50446C8
:100FE0000025FFF749FE1F48006840F480301D4986
:100FF000086000BF1B480068400C0028FAD04FF47E
:10100000806018494860A01EC4B20846406840EAA3
:10101000844048600846406840F480304860124888
:10102000006840F03200104908600E48006840F047
:1010300080700C49086000BF0A480068400E002814
:10104000FAD00848406840F002000649486005E0D0
:1010500004484068C0F3870505F00305022DF7D169
:1010600030BD000000100240002002400B490988FA
:1010700001F0200189B10949091D0988C8B2084950
:101080000988B1F5A04F08DA0649054A1288885444
:1010900003490988491C024A118070470038014001
:1010A0000E0000200010002030B589B0002400257B
:1010B00003A805A906AB07AACDE9001008A90020DE
:1010C000FFF708FB0898B0F5A06F06D0404800680D
:1010D00040F4A0200899884269D19DF80C009DF841
:1010E0000D1000EB012084B2ECB93A480088401C96
:1010F000384908809DF80E009DF80F1000EB012084
:10110000354908809DF810009DF8111000EB012072
:10111000324908809DF812009DF8131000EB012061
:101120002F49088043E02B4801880088401C294A49
:101130001080A14207D121462AA0FFF76FF80020B6
:101140002C4908700CE02CA0FFF768F8002021491A
:10115000088001202B4908702649087009B030BD6D
:10116000002521E003A9A81C095C601E00EB4000DB
:1011700005EB4000244A115424480088401C2349B0
:101180000880084600881549098888420AD101204C
:101190001C49087000200F490880104800881B492E
:1011A000088003E0681CC5B2062DDBDB00BF089891
:1011B000B0F5C06F06D00648006840F4C02008991A
:1011C000884202D101201249087000BFC6E7000022
:1011D000140000201E0000201A0000201C00002027
:1011E0002000002050616B675F49443D25640D0A73
:1011F00000000000280000206572726F722121211A
:101200000D0A000000000020001000200E00002049
:1012100018000020014600BF704700004FF0E02199
:10122000096921F004014FF0E0221161C21700EBBF
:101230005272C2F3C702074B1A701946097801EBC4
:101240004102C2EBC1114FF6FF7202EAC101024A2C
:1012500011807047040000200600002001460D4A5E
:1012600012884A434FF0E0235A6100229A6101221A
:101270001A6100BF4FF0E022106900F001021AB1BC
:1012800000F48032002AF5D000224FF0E0231A61EA
:101290009A6170470600002001460D4A12784A43C1
:1012A0004FF0E0235A6100229A6101221A6100BFC7
:1012B0004FF0E022106900F001021AB100F4803210
:1012C000002AF5D000224FF0E0231A619A6170479E
:1012D0000400002000BF054A128802F04002002AE4
:1012E000F9D0C2B2014B1B1D1A8070470038014073
:1012F00010B50446206807490840B0F1005F08D1E6
:101300006068054908602068FEF768FF02480068C9
:10131000804710BD0000FE2F240000202DE9F05F63
:1013200006460F4690460024B3463D46A1461CE0C3
:1013300068784FEA002A287850441FFA80FAAD1CDA
:101340002046611C8CB20E4921F810A0B4F5806FC4
:1013500007D100244FF480625846FFF797FD0BF544
:10136000006B09F102001FFA80F9C145E0D324B1F6
:10137000224603495846FFF789FDBDE8F09F00006B
:10138000006000201CB5002500260920FFF726FE7E
:101390004FF4E131482000F0C7F94FF4E131242047
:1013A00000F048F94820FFF739FFFFF731FCFFF75D
:1013B000D9FB5F48FFF760FB00200C2303220221CA
:1013C00000900120FFF790F8FFF720FB4FF4FA7030
:1013D000FFF744FF57A0FEF721FFA7E00020FFF72B
:1013E000E5FB0646012E04D1002056490870FFF7A0
:1013F0002DFB5448007888B953A0FEF70FFF5948D9
:10140000406800F07F40B0F1006F03D15548FFF70E
:101410006FFF57E054A0FEF701FF53E059480078F2
:1014200001284FD1584801885848FFF7CDFA58494C
:101430000880084602885748018857A0FEF7EEFE4C
:101440005348008853490988884223D14E4805886B
:1014500057A0FEF7E3FE29465AA0FEF7DFFE5EA086
:10146000FEF7DCFE6148406800F07F40B0F1006F9D
:101470000DD12A4645493B48FFF750FF5CA0FEF7D7
:10148000CDFE00202F490870FFF7E0FA02E05CA0D3
:10149000FEF7C4FE5F480078012809D15E4909685B
:1014A00041F400305B49FFF781F900205949087089
:1014B000354801883548FFF79FFA002032490880F7
:1014C0003049087055480078012816D18DF804007D
:1014D000534800788DF80500524800788DF80600D2
:1014E0005048008800128DF80700042101A8FFF77A
:1014F0007DF910B9002049490870601CC4B20A2067
:10150000FFF7ACFE0A2C11D14748006808B901204A
:1015100000E00020444908604448D0F8B40108B90C
:10152000012000E0002042490860002456E7000046
:101530002C00002053595354454D2052554E210D37
:101540000A00000011000020BFAACABCD6B4D0D047
:10155000464C415348D3C3BBA7B4FAC2EB21210D7B
:101560000A00000000900008B7C7464C415348D31A
:10157000A6D3C3B3CCD0F22CCEDEB7A8D6B4D0D08D
:10158000210D0A00000000200E00002000100020A5
:1015900022000020200000204372635F496E3D2539
:1015A000782C4372635F4F75743D25780D0A0000F7
:1015B000D3C3BBA7B3CCD0F2BDD3CAD5CDEAB3C990
:1015C000210D0A00B4FAC2EBB3A4B6C83A256442AE
:1015D000797465730D0A0000BFAACABCB8FCD0C2FA
:1015E000B9CCBCFE2E2E2E0D0A00000000100020EB
:1015F000B9CCBCFEB8FCD0C2CDEAB3C9210D0A00FB
:10160000B7C7464C415348D3A6D3C3B3CCD0F2217D
:101610000D0A0000280000201400002018000020FF
:101620000100002002000020B88121420000224277
:10163000B40122422DE9F05F05460E46300100F06C
:1016400025FA8146344905FB01F000F01FFA824675
:10165000494600F039F90746384600F0F7F984B2F8
:10166000204600F013FA8346394600F0EFFA82462E
:101670004FF0834100F01EFA814600F0E7F9804602
:101680004FF6FF7000EA041404EB080084B223480C
:10169000806940F00400214988610846C06940F42F
:1016A0000030C8611E48006820F47F401C49086073
:1016B0000846006840F40B40086019480C30006888
:1016C00040F4806016490C3108601448006940F409
:1016D0008020124908610846006920F480200861D2
:1016E00010480480001D008842F20C0108430D4997
:1016F000091D08800846008840F48070088008466C
:10170000008840F0200008800223262201210020CA
:10171000FFF7E6FABDE8F09F40420F0000100240DC
:1017200000080140084400402DE9F05F05460E46E0
:10173000300100F0ABF981462E4905FB01F000F0C5
:10174000A5F98246494600F0BFF80746384600F042
:101750007DF984B2204600F099F98346394600F0BD
:1017600075FA82464FF0834100F0A4F9814600F0FB
:101770006DF980464FF6FF7000EA041404EB080090
:1017800084B21D48806940F004001B498861084606
:10179000806940F4804088611848006820F47F60C8
:1017A000164908600846006840F40B60086012485B
:1017B000C06840F480401049C8600846C06820F402
:1017C0008040C8600E480480001D008842F20C0171
:1017D00008430B49091D08800846008840F0200096
:1017E00008800223252203210846FFF779FABDE885
:1017F000F09F000040420F0000100240040801402A
:101800000838014090EA010F48BF81F0004100F123
:101810002E82421A3CBF801A89184FEAD0524FF0EC
:101820007F4C1CEA410FA2EBD15318BF9CEA026F18
:1018300000F03B804FF0004C4CEA00204CEA0121C4
:1018400021FA03FC10EB0C0C1ED202F1FF325FEA0E
:101850001C2040EBC25038BF70471CF07F0F4FEA8E
:10186000400C18BFBCF17F4F38BF7047C3F1200355
:10187000994008BF20F00100BCF17F4F38BF70478E
:10188000A0F1C04000F0DDB94FEA3C00000A40EB97
:10189000C25028BF1CF0FF0F4FEA400CE6D018BF23
:1018A000BCF17F4F38BF7047EAE79CEA026F05D072
:1018B00010EA5C0F08BF00F00040704710B500F060
:1018C0007AF900BF64FBBE3E4FF47F0C1CEAD012D5
:1018D0001EBF1CEAD11392EA0C0F93EA0C0F00F022
:1018E000858090EA010F48BF42F4807240F4000CFA
:1018F00041F400002CF07F4120F07F4000B5814290
:10190000A2EB03020FF2081CACEB504EC0F100003A
:101910009EF800E04FEA4E0E00FB0EFC38BF490077
:101920004FEA2C1C02F5FA020CFB0EF34FEACE1E16
:101930004FEA112C4FEAC1210EEB635E42EB2242CB
:101940000EFB0CFC4FEA1C5300FB03114FEA112C59
:101950004FEA01310EFB0CFC4FEADC4C00FB0C1192
:10196000C14228BF09184CEB03335DF804EB10EBC0
:10197000410143EBC250B2F57C0F38BF704729D507
:1019800012F0F00F1CBF00F1C04000F000407047A3
:10199000008182838485868788898B8C8D8E8F9148
:1019A0009293959697999A9C9D9FA0A2A3A5A7A86C
:1019B000AAACAEB0B2B3B5B7B9BCBEC0C2C5C7C998
:1019C000CCCED1D4D7D9DCDFE2E6E9ECF0F3F7FAFC
:1019D000FE0000004FEA400C0CF1807CBCF17E4F11
:1019E00028BF7047B0F1C04000F02BB990EA010F5A
:1019F0000CEAD11348BF42F48072624538BF634598
:101A000007D213F47F0F16D080EA010000F00040E7
:101A1000704710B500F0CFF8097EFC3E00F005B825
:101A200080EA010000F00040704780EA010000F009
:101A3000004000F006B912F47F0F04BF024870475F
:101A400080EA010000F0FDB80000C07FC10DD1F1B7
:101A50009E0206DB4FEA002343F0004323FA02F024
:101A60007047004207D54FEA4001B1F1FE4F02D264
:101A70004FF00000704710B500F09DF849922480A7
:101A8000002070476FEA200070470000B0FA80F332
:101A900010FA03F2C3F19D030AD0D90501EB12201D
:101AA000530638BF704700F1010008BF20F0010065
:101AB000704700004FF47F0C1CEAD0121EBF1CEAD6
:101AC000D11392EA0C0F93EA0C0F00F0478090EAD2
:101AD000010F48BF42F480724FF0004C4CEA0020E6
:101AE0004CEA012102EB0302A0FB0113A2F5000264
:101AF000002918BF43F001035B0028BF4FEA3303FE
:101B000042EB22425FEA132C4CEBC2502EBFBCEBDF
:101B1000436FB2F57C0F70474FEA036CBCF1004F86
:101B200008BF20F00100B2F57C0F38BF70470BD51D
:101B300082F0FF0212F5803FC8BF704700F1C0403D
:101B4000D8BF00F00040704700F5000C5FEA4C0C75
:101B500048BF7047B0F1C04000F073B890EA010F81
:101B60000CEAD11348BF42F48072624538BF634526
:101B700004D280EA010000F00040704710B500F088
:101B80001AF800BF8900013E00F007B800F009B85C
:101B90005FEA410C5FEA1C6C08D080EA010000F0AB
:101BA00050B85FEA400C5FEA1C6CF6D14FF0004081
:101BB000A0F5800070470EF1020E2EF0030E5EF8C5
:101BC000044B244204D44FEA4102B2F17F4F11D8B2
:101BD0004FEA4003B3F17F4F0CD80ED14FEAD07CCF
:101BE000B2F17F4F0CEB4C0C0CF1020C08BF4CEB2C
:101BF000D17C04E04FF0080C01E04FEAD17C0CEB03
:101C00004C0324FA03F404F00704B4F1040C06D2E4
:101C10000EEB840CBDE810404CF0010C6047DFE88F
:101C20000CF0070802024FF00040A0F5800010BD44
:101C30000846420018BFD2F1807288BF00F0004011
:101C400010BDFF2141EAD050C005704780F0004030
:101C500090EA010F7FF5DDAD81F0004100F007B89B
:101C600090EA010F48BF81F000413FF5D2AD421A22
:101C700004D882F00042A0EB020011444FEAD05297
:101C80004FF07F4C1CEA410FA2EBD15318BF9CEAE6
:101C9000026F4AD04FF0004C4CEA00204CEA012180
:101CA00021FA03FCB0EB0C0C0FD412F0FE0F36D06F
:101CB0005FEA4C001DD5001240EBC25038BF7047A0
:101CC0001CF03F0F18BF70470BE0A2F101025FEA62
:101CD0001C2040EBC25038BF70471CF07F0F18BF6C
:101CE0007047C3F12003994014BF401E20F001004B
:101CF000704780084FEA122308BF7047B0FA80FC93
:101D0000A2EB0C02CCF1280C60FA0CF093EA122F33
:101D100004BF00EBC25070474FEAC3707047130A0C
:101D20005FEADC1008BF7047F6E79CEA026F04D058
:101D300010EA5C0F08BF0020704710B5FFF73BFFAB
:101D400040DFF63E81F0004070470000C1C081C115
:101D5000400101C3C003800241C201C6C006800722
:101D600041C70005C1C581C4400401CCC00C800D31
:101D700041CD000FC1CF81CE400E000AC1CA81CB38
:101D8000400B01C9C009800841C801D8C01880199A
:101D900041D9001BC1DB81DA401A001EC1DE81DFA0
:101DA000401F01DDC01D801C41DC0014C1D481D561
:101DB000401501D7C017801641D601D2C01280133A
:101DC00041D30011C1D181D0401001F0C030803129
:101DD00041F10033C1F381F240320036C1F681F7A0
:101DE000403701F5C035803441F4003CC1FC81FD31
:101DF000403D01FFC03F803E41FE01FAC03A803BBA
:101E000041FB0039C1F981F840380028C1E881E977
:101E1000402901EBC02B802A41EA01EEC02E802F21
:101E200041EF002DC1ED81EC402C01E4C024802560
:101E300041E50027C1E781E640260022C1E281E3B7
:101E4000402301E1C021802041E001A0C060806109
:101E500041A10063C1A381A240620066C1A681A71F
:101E6000406701A5C065806441A4006CC1AC81AD30
:101E7000406D01AFC06F806E41AE01AAC06A806B39
:101E800041AB0069C1A981A840680078C1B881B997
:101E9000407901BBC07B807A41BA01BEC07E807FA1
:101EA00041BF007DC1BD81BC407C01B4C074807560
:101EB00041B50077C1B781B640760072C1B281B337
:101EC000407301B1C071807041B00050C1908191E8
:101ED00040510193C053805241920196C0568057A1
:101EE00041970055C19581944054019CC05C805D30
:101EF000419D005FC19F819E405E005AC19A819BB7
:101F0000405B0199C059805841980188C048804978
:101F10004189004BC18B818A404A004EC18E818F1E
:101F2000404F018DC04D804C418C0044C18481855F
:101F300040450187C047804641860182C0428043B8
:101F400041830041C181818040403031323334359A
:101F500036373839414243444546403058003031E5
:101F60003233343536373839616263646566403000
:101F700078000000941F0008000000202C000000E2
:101F80006C010008C01F00082C000020D46700006E
:101F900088010008000100000000000000000000AF
:101FA0000000000001000000FF0000000000000031
:101FB0000000000000000000000000000000000021
:0400000508000131BD
:00000001FF
